{
  "contractName": "HotelBooking",
  "abi": [
    {
      "inputs": [],
      "stateMutability": "nonpayable",
      "type": "constructor"
    },
    {
      "anonymous": false,
      "inputs": [
        {
          "indexed": false,
          "internalType": "uint256",
          "name": "bookingId",
          "type": "uint256"
        },
        {
          "indexed": false,
          "internalType": "address",
          "name": "customer",
          "type": "address"
        },
        {
          "indexed": false,
          "internalType": "uint256",
          "name": "refundAmount",
          "type": "uint256"
        }
      ],
      "name": "BookingCancelled",
      "type": "event"
    },
    {
      "anonymous": false,
      "inputs": [
        {
          "indexed": false,
          "internalType": "uint256",
          "name": "roomId",
          "type": "uint256"
        },
        {
          "indexed": false,
          "internalType": "address",
          "name": "customer",
          "type": "address"
        },
        {
          "indexed": false,
          "internalType": "uint256",
          "name": "checkInDate",
          "type": "uint256"
        },
        {
          "indexed": false,
          "internalType": "uint256",
          "name": "checkOutDate",
          "type": "uint256"
        }
      ],
      "name": "RoomBooked",
      "type": "event"
    },
    {
      "inputs": [
        {
          "internalType": "uint256",
          "name": "",
          "type": "uint256"
        }
      ],
      "name": "bookings",
      "outputs": [
        {
          "internalType": "address",
          "name": "customer",
          "type": "address"
        },
        {
          "internalType": "uint256",
          "name": "roomId",
          "type": "uint256"
        },
        {
          "internalType": "uint256",
          "name": "checkInDate",
          "type": "uint256"
        },
        {
          "internalType": "uint256",
          "name": "checkOutDate",
          "type": "uint256"
        },
        {
          "internalType": "uint256",
          "name": "bookingTime",
          "type": "uint256"
        },
        {
          "internalType": "bool",
          "name": "isCancelled",
          "type": "bool"
        },
        {
          "internalType": "string",
          "name": "ipfsHash",
          "type": "string"
        }
      ],
      "stateMutability": "view",
      "type": "function",
      "constant": true
    },
    {
      "inputs": [],
      "name": "owner",
      "outputs": [
        {
          "internalType": "address",
          "name": "",
          "type": "address"
        }
      ],
      "stateMutability": "view",
      "type": "function",
      "constant": true
    },
    {
      "inputs": [
        {
          "internalType": "uint256",
          "name": "",
          "type": "uint256"
        }
      ],
      "name": "roomBookings",
      "outputs": [
        {
          "internalType": "address",
          "name": "customer",
          "type": "address"
        },
        {
          "internalType": "uint256",
          "name": "roomId",
          "type": "uint256"
        },
        {
          "internalType": "uint256",
          "name": "checkInDate",
          "type": "uint256"
        },
        {
          "internalType": "uint256",
          "name": "checkOutDate",
          "type": "uint256"
        },
        {
          "internalType": "uint256",
          "name": "bookingTime",
          "type": "uint256"
        },
        {
          "internalType": "bool",
          "name": "isCancelled",
          "type": "bool"
        },
        {
          "internalType": "string",
          "name": "ipfsHash",
          "type": "string"
        }
      ],
      "stateMutability": "view",
      "type": "function",
      "constant": true
    },
    {
      "inputs": [
        {
          "internalType": "uint256",
          "name": "",
          "type": "uint256"
        }
      ],
      "name": "rooms",
      "outputs": [
        {
          "internalType": "uint256",
          "name": "id",
          "type": "uint256"
        },
        {
          "internalType": "string",
          "name": "name",
          "type": "string"
        },
        {
          "internalType": "uint256",
          "name": "price",
          "type": "uint256"
        },
        {
          "internalType": "bool",
          "name": "isBooked",
          "type": "bool"
        }
      ],
      "stateMutability": "view",
      "type": "function",
      "constant": true
    },
    {
      "inputs": [
        {
          "internalType": "string",
          "name": "_name",
          "type": "string"
        },
        {
          "internalType": "uint256",
          "name": "_price",
          "type": "uint256"
        }
      ],
      "name": "addRoom",
      "outputs": [],
      "stateMutability": "nonpayable",
      "type": "function"
    },
    {
      "inputs": [
        {
          "internalType": "uint256",
          "name": "_roomId",
          "type": "uint256"
        },
        {
          "internalType": "uint256",
          "name": "_checkInDate",
          "type": "uint256"
        },
        {
          "internalType": "uint256",
          "name": "_checkOutDate",
          "type": "uint256"
        },
        {
          "internalType": "string",
          "name": "_ipfsHash",
          "type": "string"
        }
      ],
      "name": "bookRoom",
      "outputs": [],
      "stateMutability": "payable",
      "type": "function",
      "payable": true
    },
    {
      "inputs": [
        {
          "internalType": "uint256",
          "name": "_roomId",
          "type": "uint256"
        }
      ],
      "name": "cancelBooking",
      "outputs": [],
      "stateMutability": "nonpayable",
      "type": "function"
    },
    {
      "inputs": [],
      "name": "getRooms",
      "outputs": [
        {
          "components": [
            {
              "internalType": "uint256",
              "name": "id",
              "type": "uint256"
            },
            {
              "internalType": "string",
              "name": "name",
              "type": "string"
            },
            {
              "internalType": "uint256",
              "name": "price",
              "type": "uint256"
            },
            {
              "internalType": "bool",
              "name": "isBooked",
              "type": "bool"
            }
          ],
          "internalType": "struct HotelBooking.Room[]",
          "name": "",
          "type": "tuple[]"
        }
      ],
      "stateMutability": "view",
      "type": "function",
      "constant": true
    },
    {
      "inputs": [],
      "name": "getBookings",
      "outputs": [
        {
          "components": [
            {
              "internalType": "address",
              "name": "customer",
              "type": "address"
            },
            {
              "internalType": "uint256",
              "name": "roomId",
              "type": "uint256"
            },
            {
              "internalType": "uint256",
              "name": "checkInDate",
              "type": "uint256"
            },
            {
              "internalType": "uint256",
              "name": "checkOutDate",
              "type": "uint256"
            },
            {
              "internalType": "uint256",
              "name": "bookingTime",
              "type": "uint256"
            },
            {
              "internalType": "bool",
              "name": "isCancelled",
              "type": "bool"
            },
            {
              "internalType": "string",
              "name": "ipfsHash",
              "type": "string"
            }
          ],
          "internalType": "struct HotelBooking.Booking[]",
          "name": "",
          "type": "tuple[]"
        }
      ],
      "stateMutability": "view",
      "type": "function",
      "constant": true
    }
  ],
  "bytecode": "0x608060405234801561001057600080fd5b50336000806101000a81548173ffffffffffffffffffffffffffffffffffffffff021916908373ffffffffffffffffffffffffffffffffffffffff160217905550611e24806100606000396000f3fe6080604052600436106100865760003560e01c80638da5cb5b116100595780638da5cb5b14610160578063955c84201461018b578063b6076702146101b6578063d08f6a6b146101d2578063da7166cc146101fd57610086565b80630dca825e1461008b5780631bae0ac8146100b45780631dab301e146100f45780634bde3ab114610137575b600080fd5b34801561009757600080fd5b506100b260048036038101906100ad9190611191565b610240565b005b3480156100c057600080fd5b506100db60048036038101906100d69190611191565b610433565b6040516100eb9493929190611281565b60405180910390f35b34801561010057600080fd5b5061011b60048036038101906101169190611191565b610508565b60405161012e979695949392919061130e565b60405180910390f35b34801561014357600080fd5b5061015e600480360381019061015991906114b9565b61060f565b005b34801561016c57600080fd5b5061017561074e565b6040516101829190611515565b60405180910390f35b34801561019757600080fd5b506101a0610772565b6040516101ad9190611705565b60405180910390f35b6101d060048036038101906101cb9190611727565b6108fc565b005b3480156101de57600080fd5b506101e7610ce1565b6040516101f491906118cf565b60405180910390f35b34801561020957600080fd5b50610224600480360381019061021f9190611191565b610e01565b604051610237979695949392919061130e565b60405180910390f35b60006003600083815260200190815260200160002090503373ffffffffffffffffffffffffffffffffffffffff168160000160009054906101000a900473ffffffffffffffffffffffffffffffffffffffff1673ffffffffffffffffffffffffffffffffffffffff16146102e9576040517f08c379a00000000000000000000000000000000000000000000000000000000081526004016102e090611963565b60405180910390fd5b8060050160009054906101000a900460ff161561033b576040517f08c379a0000000000000000000000000000000000000000000000000000000008152600401610332906119cf565b60405180910390fd5b600061034f82600401548360010154610ef8565b905060018260050160006101000a81548160ff021916908315150217905550600060018481548110610384576103836119ef565b5b906000526020600020906004020160030160006101000a81548160ff0219169083151502179055503373ffffffffffffffffffffffffffffffffffffffff166108fc829081150290604051600060405180830381858888f193505050501580156103f2573d6000803e3d6000fd5b507f1b6cb622ce03beaf3e0c44cb4253af7c70bb84b7e3711229b33cc2ec4c613c8e83338360405161042693929190611a1e565b60405180910390a1505050565b6001818154811061044357600080fd5b906000526020600020906004020160009150905080600001549080600101805461046c90611a84565b80601f016020809104026020016040519081016040528092919081815260200182805461049890611a84565b80156104e55780601f106104ba576101008083540402835291602001916104e5565b820191906000526020600020905b8154815290600101906020018083116104c857829003601f168201915b5050505050908060020154908060030160009054906101000a900460ff16905084565b6002818154811061051857600080fd5b90600052602060002090600702016000915090508060000160009054906101000a900473ffffffffffffffffffffffffffffffffffffffff16908060010154908060020154908060030154908060040154908060050160009054906101000a900460ff169080600601805461058c90611a84565b80601f01602080910402602001604051908101604052809291908181526020018280546105b890611a84565b80156106055780601f106105da57610100808354040283529160200191610605565b820191906000526020600020905b8154815290600101906020018083116105e857829003601f168201915b5050505050905087565b60008054906101000a900473ffffffffffffffffffffffffffffffffffffffff1673ffffffffffffffffffffffffffffffffffffffff163373ffffffffffffffffffffffffffffffffffffffff161461069d576040517f08c379a000000000000000000000000000000000000000000000000000000000815260040161069490611b28565b60405180910390fd5b600060018054905090506001604051806080016040528083815260200185815260200184815260200160001515815250908060018154018082558091505060019003906000526020600020906004020160009091909190915060008201518160000155602082015181600101908051906020019061071c929190611017565b506040820151816002015560608201518160030160006101000a81548160ff0219169083151502179055505050505050565b60008054906101000a900473ffffffffffffffffffffffffffffffffffffffff1681565b60606002805480602002602001604051908101604052809291908181526020016000905b828210156108f357838290600052602060002090600702016040518060e00160405290816000820160009054906101000a900473ffffffffffffffffffffffffffffffffffffffff1673ffffffffffffffffffffffffffffffffffffffff1673ffffffffffffffffffffffffffffffffffffffff168152602001600182015481526020016002820154815260200160038201548152602001600482015481526020016005820160009054906101000a900460ff1615151515815260200160068201805461086290611a84565b80601f016020809104026020016040519081016040528092919081815260200182805461088e90611a84565b80156108db5780601f106108b0576101008083540402835291602001916108db565b820191906000526020600020905b8154815290600101906020018083116108be57829003601f168201915b50505050508152505081526020019060010190610796565b50505050905090565b6001805490508410610943576040517f08c379a000000000000000000000000000000000000000000000000000000000815260040161093a90611b94565b60405180910390fd5b60018481548110610957576109566119ef565b5b906000526020600020906004020160030160009054906101000a900460ff16156109b6576040517f08c379a00000000000000000000000000000000000000000000000000000000081526004016109ad90611c00565b60405180910390fd5b600184815481106109ca576109c96119ef565b5b9060005260206000209060040201600201543414610a1d576040517f08c379a0000000000000000000000000000000000000000000000000000000008152600401610a1490611c6c565b60405180910390fd5b6001808581548110610a3257610a316119ef565b5b906000526020600020906004020160030160006101000a81548160ff0219169083151502179055506000600280549050905060026040518060e001604052803373ffffffffffffffffffffffffffffffffffffffff16815260200187815260200186815260200185815260200142815260200160001515815260200184815250908060018154018082558091505060019003906000526020600020906007020160009091909190915060008201518160000160006101000a81548173ffffffffffffffffffffffffffffffffffffffff021916908373ffffffffffffffffffffffffffffffffffffffff1602179055506020820151816001015560408201518160020155606082015181600301556080820151816004015560a08201518160050160006101000a81548160ff02191690831515021790555060c0820151816006019080519060200190610b86929190611017565b50505060028181548110610b9d57610b9c6119ef565b5b9060005260206000209060070201600360008781526020019081526020016000206000820160009054906101000a900473ffffffffffffffffffffffffffffffffffffffff168160000160006101000a81548173ffffffffffffffffffffffffffffffffffffffff021916908373ffffffffffffffffffffffffffffffffffffffff160217905550600182015481600101556002820154816002015560038201548160030155600482015481600401556005820160009054906101000a900460ff168160050160006101000a81548160ff0219169083151502179055506006820181600601908054610c8e90611a84565b610c9992919061109d565b509050507f414e8daa25ba8dde6e691876495db5da793781eed1794da14679b2af00301df685338686604051610cd29493929190611c8c565b60405180910390a15050505050565b60606001805480602002602001604051908101604052809291908181526020016000905b82821015610df8578382906000526020600020906004020160405180608001604052908160008201548152602001600182018054610d4290611a84565b80601f0160208091040260200160405190810160405280929190818152602001828054610d6e90611a84565b8015610dbb5780601f10610d9057610100808354040283529160200191610dbb565b820191906000526020600020905b815481529060010190602001808311610d9e57829003601f168201915b50505050508152602001600282015481526020016003820160009054906101000a900460ff16151515158152505081526020019060010190610d05565b50505050905090565b60036020528060005260406000206000915090508060000160009054906101000a900473ffffffffffffffffffffffffffffffffffffffff16908060010154908060020154908060030154908060040154908060050160009054906101000a900460ff1690806006018054610e7590611a84565b80601f0160208091040260200160405190810160405280929190818152602001828054610ea190611a84565b8015610eee5780601f10610ec357610100808354040283529160200191610eee565b820191906000526020600020905b815481529060010190602001808311610ed157829003601f168201915b5050505050905087565b6000808342610f079190611d00565b9050600060018481548110610f1f57610f1e6119ef565b5b9060005260206000209060040201600201549050603c821015610f5d5760648082610f4a9190611d34565b610f549190611dbd565b92505050611011565b6078821015610f88576064605a82610f759190611d34565b610f7f9190611dbd565b92505050611011565b60b4821015610fb3576064605082610fa09190611d34565b610faa9190611dbd565b92505050611011565b60f0821015610fde576064604682610fcb9190611d34565b610fd59190611dbd565b92505050611011565b61012c82101561100a576064603c82610ff79190611d34565b6110019190611dbd565b92505050611011565b6000925050505b92915050565b82805461102390611a84565b90600052602060002090601f016020900481019282611045576000855561108c565b82601f1061105e57805160ff191683800117855561108c565b8280016001018555821561108c579182015b8281111561108b578251825591602001919060010190611070565b5b509050611099919061112a565b5090565b8280546110a990611a84565b90600052602060002090601f0160209004810192826110cb5760008555611119565b82601f106110dc5780548555611119565b8280016001018555821561111957600052602060002091601f016020900482015b828111156111185782548255916001019190600101906110fd565b5b509050611126919061112a565b5090565b5b8082111561114357600081600090555060010161112b565b5090565b6000604051905090565b600080fd5b600080fd5b6000819050919050565b61116e8161115b565b811461117957600080fd5b50565b60008135905061118b81611165565b92915050565b6000602082840312156111a7576111a6611151565b5b60006111b58482850161117c565b91505092915050565b6111c78161115b565b82525050565b600081519050919050565b600082825260208201905092915050565b60005b838110156112075780820151818401526020810190506111ec565b83811115611216576000848401525b50505050565b6000601f19601f8301169050919050565b6000611238826111cd565b61124281856111d8565b93506112528185602086016111e9565b61125b8161121c565b840191505092915050565b60008115159050919050565b61127b81611266565b82525050565b600060808201905061129660008301876111be565b81810360208301526112a8818661122d565b90506112b760408301856111be565b6112c46060830184611272565b95945050505050565b600073ffffffffffffffffffffffffffffffffffffffff82169050919050565b60006112f8826112cd565b9050919050565b611308816112ed565b82525050565b600060e082019050611323600083018a6112ff565b61133060208301896111be565b61133d60408301886111be565b61134a60608301876111be565b61135760808301866111be565b61136460a0830185611272565b81810360c0830152611376818461122d565b905098975050505050505050565b600080fd5b600080fd5b7f4e487b7100000000000000000000000000000000000000000000000000000000600052604160045260246000fd5b6113c68261121c565b810181811067ffffffffffffffff821117156113e5576113e461138e565b5b80604052505050565b60006113f8611147565b905061140482826113bd565b919050565b600067ffffffffffffffff8211156114245761142361138e565b5b61142d8261121c565b9050602081019050919050565b82818337600083830152505050565b600061145c61145784611409565b6113ee565b90508281526020810184848401111561147857611477611389565b5b61148384828561143a565b509392505050565b600082601f8301126114a05761149f611384565b5b81356114b0848260208601611449565b91505092915050565b600080604083850312156114d0576114cf611151565b5b600083013567ffffffffffffffff8111156114ee576114ed611156565b5b6114fa8582860161148b565b925050602061150b8582860161117c565b9150509250929050565b600060208201905061152a60008301846112ff565b92915050565b600081519050919050565b600082825260208201905092915050565b6000819050602082019050919050565b611565816112ed565b82525050565b6115748161115b565b82525050565b61158381611266565b82525050565b600082825260208201905092915050565b60006115a5826111cd565b6115af8185611589565b93506115bf8185602086016111e9565b6115c88161121c565b840191505092915050565b600060e0830160008301516115eb600086018261155c565b5060208301516115fe602086018261156b565b506040830151611611604086018261156b565b506060830151611624606086018261156b565b506080830151611637608086018261156b565b5060a083015161164a60a086018261157a565b5060c083015184820360c0860152611662828261159a565b9150508091505092915050565b600061167b83836115d3565b905092915050565b6000602082019050919050565b600061169b82611530565b6116a5818561153b565b9350836020820285016116b78561154c565b8060005b858110156116f357848403895281516116d4858261166f565b94506116df83611683565b925060208a019950506001810190506116bb565b50829750879550505050505092915050565b6000602082019050818103600083015261171f8184611690565b905092915050565b6000806000806080858703121561174157611740611151565b5b600061174f8782880161117c565b94505060206117608782880161117c565b93505060406117718782880161117c565b925050606085013567ffffffffffffffff81111561179257611791611156565b5b61179e8782880161148b565b91505092959194509250565b600081519050919050565b600082825260208201905092915050565b6000819050602082019050919050565b60006080830160008301516117ee600086018261156b565b5060208301518482036020860152611806828261159a565b915050604083015161181b604086018261156b565b50606083015161182e606086018261157a565b508091505092915050565b600061184583836117d6565b905092915050565b6000602082019050919050565b6000611865826117aa565b61186f81856117b5565b935083602082028501611881856117c6565b8060005b858110156118bd578484038952815161189e8582611839565b94506118a98361184d565b925060208a01995050600181019050611885565b50829750879550505050505092915050565b600060208201905081810360008301526118e9818461185a565b905092915050565b7f4f6e6c792074686520637573746f6d65722063616e2063616e63656c2074686560008201527f20626f6f6b696e67000000000000000000000000000000000000000000000000602082015250565b600061194d6028836111d8565b9150611958826118f1565b604082019050919050565b6000602082019050818103600083015261197c81611940565b9050919050565b7f426f6f6b696e6720697320616c72656164792063616e63656c6c656400000000600082015250565b60006119b9601c836111d8565b91506119c482611983565b602082019050919050565b600060208201905081810360008301526119e8816119ac565b9050919050565b7f4e487b7100000000000000000000000000000000000000000000000000000000600052603260045260246000fd5b6000606082019050611a3360008301866111be565b611a4060208301856112ff565b611a4d60408301846111be565b949350505050565b7f4e487b7100000000000000000000000000000000000000000000000000000000600052602260045260246000fd5b60006002820490506001821680611a9c57607f821691505b60208210811415611ab057611aaf611a55565b5b50919050565b7f4f6e6c7920746865206f776e65722063616e20706572666f726d20746869732060008201527f616374696f6e0000000000000000000000000000000000000000000000000000602082015250565b6000611b126026836111d8565b9150611b1d82611ab6565b604082019050919050565b60006020820190508181036000830152611b4181611b05565b9050919050565b7f496e76616c696420726f6f6d2069640000000000000000000000000000000000600082015250565b6000611b7e600f836111d8565b9150611b8982611b48565b602082019050919050565b60006020820190508181036000830152611bad81611b71565b9050919050565b7f526f6f6d20697320616c726561647920626f6f6b656400000000000000000000600082015250565b6000611bea6016836111d8565b9150611bf582611bb4565b602082019050919050565b60006020820190508181036000830152611c1981611bdd565b9050919050565b7f496e636f72726563742045746865722073656e74000000000000000000000000600082015250565b6000611c566014836111d8565b9150611c6182611c20565b602082019050919050565b60006020820190508181036000830152611c8581611c49565b9050919050565b6000608082019050611ca160008301876111be565b611cae60208301866112ff565b611cbb60408301856111be565b611cc860608301846111be565b95945050505050565b7f4e487b7100000000000000000000000000000000000000000000000000000000600052601160045260246000fd5b6000611d0b8261115b565b9150611d168361115b565b925082821015611d2957611d28611cd1565b5b828203905092915050565b6000611d3f8261115b565b9150611d4a8361115b565b9250817fffffffffffffffffffffffffffffffffffffffffffffffffffffffffffffffff0483118215151615611d8357611d82611cd1565b5b828202905092915050565b7f4e487b7100000000000000000000000000000000000000000000000000000000600052601260045260246000fd5b6000611dc88261115b565b9150611dd38361115b565b925082611de357611de2611d8e565b5b82820490509291505056fea26469706673582212204bd93189177b75a89790e945e0a9f869e06f8b97e6ed20eacb107d445bb2938064736f6c634300080a0033",
  "immutableReferences": {},
  "source": "// SPDX-License-Identifier: MIT\npragma solidity ^0.8.10;\n\ncontract HotelBooking {\n    // (Room)  \n    struct Room {\n        uint id;          //   \n        string name;      //  \n        uint price;       //   (Wei )\n        bool isBooked;    //   \n    }\n\n    // (Booking)  \n    struct Booking {\n        address customer;     //    \n        uint roomId;          //   ID\n        uint checkInDate;     //   ()\n        uint checkOutDate;    //   ()\n        uint bookingTime;     //   ()\n        bool isCancelled;     //   \n        string ipfsHash;      //   IPFS \n    }\n\n    address public owner;           //  \n    Room[] public rooms;            //   \n    Booking[] public bookings;      //   \n\n    //  ID    \n    mapping(uint => Booking) public roomBookings;\n\n    //     \n    event RoomBooked(uint roomId, address customer, uint checkInDate, uint checkOutDate);\n\n    //     \n    event BookingCancelled(uint bookingId, address customer, uint refundAmount);\n\n    //     \n    constructor() {\n        owner = msg.sender;\n    }\n\n    //       \n    modifier onlyOwner() {\n        require(msg.sender == owner, \"Only the owner can perform this action\");\n        _;\n    }\n\n    //    ,   \n    function addRoom(string memory _name, uint _price) public onlyOwner {\n        uint roomId = rooms.length; //   ID    \n        rooms.push(Room(roomId, _name, _price, false)); //    \n    }\n\n    //   \n    function bookRoom(uint _roomId, uint _checkInDate, uint _checkOutDate, string memory _ipfsHash) public payable {\n        require(_roomId < rooms.length, \"Invalid room id\"); //  ID  \n        require(!rooms[_roomId].isBooked, \"Room is already booked\"); //      \n        require(msg.value == rooms[_roomId].price, \"Incorrect Ether sent\"); //    \n\n        rooms[_roomId].isBooked = true; //    \n        uint bookingId = bookings.length; //   ID    \n        bookings.push(Booking(msg.sender, _roomId, _checkInDate, _checkOutDate, block.timestamp, false, _ipfsHash)); //    \n        roomBookings[_roomId] = bookings[bookingId]; //  ID   \n\n        emit RoomBooked(_roomId, msg.sender, _checkInDate, _checkOutDate); // RoomBooked  \n    }\n\n    //   \n    function cancelBooking(uint _roomId) public {\n        Booking storage booking = roomBookings[_roomId]; //    \n        require(booking.customer == msg.sender, \"Only the customer can cancel the booking\"); //      \n        require(!booking.isCancelled, \"Booking is already cancelled\"); //     \n\n        uint refundAmount = calculateRefund(booking.bookingTime, booking.roomId); //   \n        booking.isCancelled = true; //    \n        rooms[_roomId].isBooked = false; //     \n\n        payable(msg.sender).transfer(refundAmount); //    \n        emit BookingCancelled(_roomId, msg.sender, refundAmount); // BookingCancelled  \n    }\n\n    //        \n    function calculateRefund(uint bookingTime, uint roomId) internal view returns (uint) {\n        uint elapsed = block.timestamp - bookingTime; //     \n        uint price = rooms[roomId].price; //   \n\n        //      \n        if (elapsed < 1 minutes) {\n            return price * 100 / 100; // 1    100% \n        } else if (elapsed < 2 minutes) {\n            return price * 90 / 100; // 2    90% \n        } else if (elapsed < 3 minutes) {\n            return price * 80 / 100; // 3    80% \n        } else if (elapsed < 4 minutes) {\n            return price * 70 / 100; // 4    70% \n        } else if (elapsed < 5 minutes) {\n            return price * 60 / 100; // 5    60% \n        } else {\n            return 0; // 5     \n        }\n    }\n\n    //     \n    function getRooms() public view returns (Room[] memory) {\n        return rooms; //   \n    }\n\n    //     \n    function getBookings() public view returns (Booking[] memory) {\n        return bookings; //   \n    }\n}\n",
  "sourcePath": "/Users/yooseungjong/GitHub/HotelReservation/contracts/HotelBooking.sol",
  "compiler": {
    "name": "solc",
    "version": "0.8.10+commit.fc410830.Emscripten.clang"
  },
  "schemaVersion": "3.4.16",
  "updatedAt": "2024-05-28T13:21:22.508Z",
  "networkType": "ethereum",
  "devdoc": {
    "kind": "dev",
    "methods": {},
    "version": 1
  },
  "userdoc": {
    "kind": "user",
    "methods": {},
    "version": 1
  }
}